:020000040800F2
:100000000025002045010008BB1900082719000839
:10001000B9190008D90600086D1E0008000000008C
:10002000000000000000000000000000BF190008F0
:100030004D07000800000000BD190008C1190008A4
:100040005F0100085F0100085F0100085F01000810
:100050005F0100085F0100085F0100085F01000800
:100060005F0100085F0100085F0100085F010008F0
:100070005F0100085F010008DD060008E9060008CE
:100080005F0100085F0100085F0100085F010008D0
:100090005F0100085F0100085F0100085F010008C0
:1000A0005F0100085F0100085F0100085F010008B0
:1000B0005F0100085F0100085F0100085F010008A0
:1000C0005F0100085F0100085F0100085F01000890
:1000D0005F010008611E00085F0100085F01000861
:1000E0005F0100085F0100085F0100085F01000870
:1000F0005F0100085F0100085F0100085F01000860
:100100005F0100085F0100085F0100085F0100084F
:100110005F0100085F0100085F0100085F0100083F
:100120005F0100085F0100085F0100085F0100082F
:10013000DFF80CD000F040FA00480047F52700082F
:10014000002500200648804706480047FEE7FEE7F6
:10015000FEE7FEE7FEE7FEE7FEE7FEE7FEE7FEE777
:10016000131A000831010008202A04DB203A21FA82
:1001700002F00021704721FA02F3D040C2F12002C0
:100180009140084319467047D2B201E000F8012BB4
:10019000491EFBD270470022F6E710B513460A4607
:1001A00004461946FFF7F0FF204610BD421C10F828
:1001B000011B0029FBD1801A704730B50B46014660
:1001C00000202022012409E021FA02F59D4205D3F6
:1001D00003FA02F5491B04FA02F52844151EA2F1A0
:1001E0000102F1DC30BD2DE9F05F054600209246AA
:1001F0009B4688460646814640241BE028464146E9
:1002000047462246FFF7B0FF53465A46C01A91416F
:1002100010D311461846224600F0E0F92D1A67EB7C
:1002200001084F4622460120002100F0D7F917EBC4
:1002300000094E41201EA4F10104DFDC484631468E
:100240002A464346BDE8F09F2DE9FE4F804681EAED
:100250000300C00F0C46009021F0004123F0004540
:10026000B8EB0200A94105D24046214690461C4603
:100270000B46024623F00040104347D0270DC7F33A
:100280000A00C3F30A510290401A019040286BDA29
:10029000C3F3130040F4801B0098924620B1002362
:1002A000D2EB030A63EB0B0B01985946C0F14002F5
:1002B000504600F093F906460D4650465946019ABD
:1002C00000F09BF910EB08006141002487EA11520D
:1002D00084EAE7731A4340D0009A62B3019A012A74
:1002E0004FEA075215DC001B61EB02014FF00042A0
:1002F00002EA0752CDE90042001C41F58011324666
:100300002B4600F09BF903B0BDE8F08F4046214634
:10031000F9E7001B61EB0201001C41F58013001896
:100320005B412018A2F5001747EB030140EAD570A6
:10033000B6196D4111E06D084FEA360645EAC07501
:100340004FEA0752001B61EB0201001C41F58011CE
:1003500049084FEA30000019514132462B4603B09C
:10036000BDE8F04F00F05BB9009801224000002387
:10037000D0EB020263EBE073009821464FEAE07491
:10038000B8EB000061EB0401E9E783F000435BE7B1
:1003900081F0004158E72DE9FE4F81EA030404F0A3
:1003A000004421F0004100944FF0000B23F0004383
:1003B00050EA01045ED052EA03045BD0C3F30A544E
:1003C000C1F30A552C44A4F2F3340194A0FB025467
:1003D000C1F3130141F48011C3F3130343F48013F9
:1003E00001FB024400FB034E840A970A44EA81544D
:1003F00047EA8357A4FB076802958D0A05FB07852A
:100400004FEA932C04FB0C542705029D4FEA065833
:1004100047EA1637B5EB08056EEB070C870E920E10
:1004200047EA811742EA8312A7FB0201B6EB0B01F0
:1004300064EB00042B0D43EA0C335E1844EB1C50B4
:10044000DA465146E7FB0201C5F313044FEA0B33CA
:1004500043EA14534FEA0432019C43EA0603A4F131
:100460000C040294009CCDE900B400F0E7F803B05E
:10047000BDE8F08F00200146F9E72DE9F04D81EA53
:10048000030404F0004B21F0004514464FF0000A2D
:1004900023F0004150EA050220D054EA01021DD0A9
:1004A000C5F30A570246C5F31303C1F31300C1F3A2
:1004B0000A5640F4801543F48013A7EB0608101B7E
:1004C000D64608F2FD3873EB050002D308F10108A7
:1004D00001E092185B41B8F1000F03DA00200146F9
:1004E000BDE8F08D00204FF48011064684460EE0F2
:1004F000171B73EB050705D3121B63EB05030643BC
:100500004CEA010C49084FEA300092185B4150EA6E
:100510000107EDD152EA030012D082EA040083EA17
:100520000501084305D0101BAB4106D20122002370
:1005300006E000224FF0004302E06FF0010253108A
:100540001AEB06004CEB085110EB0A0041EB0B01D3
:10055000BDE8F04D00F063B8C1F30A52C1F31301D6
:1005600040F2FF3341F480119A4202DA0020014642
:10057000704740F233439A42A2F2334202DC5242C5
:10058000FFF7F2BD00F02AB830B5041E71F1000487
:1005900004DB4FF00044404264EB0101141E73F190
:1005A000000405DB1C464FF00043524263EB04039A
:1005B000994208BF904230BD064C074D06E0E06806
:1005C00040F0010394E8070098471034AC42F6D39A
:1005D000FFF7B2FD4029000860290008202A04DB4B
:1005E000203A00FA02F1002070479140C2F1200346
:1005F00020FA03F3194390407047202A06DBCB17FB
:10060000203A41FA02F043EAE07306E041FA02F3CD
:10061000D040C2F12002914008431946704710B5FE
:10062000141E73F1000408DA401C41F10001921815
:100630005B411A4301D120F0010010BD2DE9F04DBE
:1006400092469B4611B1B1FA81F202E0B0FA80F213
:1006500020329046FFF7C2FF04460F4640EA0A00E8
:1006600041EA0B0153465A46084313D0114653EA58
:10067000010019D0C8F140025046FFF775FD05464C
:100680000E46504659464246FFF7A8FF084305D09C
:10069000012004E020463946BDE8F08D00200543E6
:1006A00046EAE0762C4337430A986305E40AA0EB58
:1006B00008000022FD0A44EA47540A3002D500200F
:1006C0000146E9E7010510196941DDE9084500190E
:1006D0006941BDE8F04DA2E7FEE70000014800F0E7
:1006E000CFB80000B8000020014800F0C9B80000F1
:1006F0007400002030B590F840500124AC40C56B28
:100700006C60046863604368102B036803D09960D1
:100710000068C26030BD9A600068C16030BD0000F2
:100720000FB4C92100B5B3B035AB6846349A01F0B7
:100730009FFB6846FFF73AFD02466946024801F012
:10074000F3F933B05DF814FB1800002070477047D0
:100750002DE9F05F90F821100024022903D0042134
:100760008163012485E001680A6822F00E020A60B4
:1007700001680A6822F001020A603F4E3E4FB2153E
:10078000DFF8F4C0DFF8F090DFF8ECA0DFF8E8B0B5
:10079000DFF8E4E00168783F13011502ACF1640C66
:1007A000A9F15009AAF13C0AABF1280BAEF1140EE5
:1007B0004FF48018B14227D9B9420ED0614512D00A
:1007C00049451DD0514518D0594518D0714501D122
:1007D000424615E0294EB14201D1012210E0274ED8
:1007E0001436B14201D110220AE0244E2836B1421B
:1007F00006D0224A3C32914201D11A4600E02A46F4
:100800001E49091F0A602BE0B94213D0614517D079
:10081000494522D051451DD059451DD0714501D1C2
:1008200042461AE0B14202D14FF0807215E0134EF9
:10083000B14201D1012210E0104E1436B14201D173
:1008400010220AE00D4E2836B14206D00B4A3C3247
:10085000914201D11A4600E02A46074980394A6090
:10086000012180F82110002180F82010416B01B196
:1008700088472046BDE8F09F8000024008040240FF
:100880002DE9F05FC16B0A6801680B68046C4FF0DA
:10089000040808FA04F8844D844E854FDFF814C22A
:1008A000DFF81492DFF814A2DFF814B2DFF814E2D4
:1008B00018EA020F65D05FEA437862D50A689206AB
:1008C00003D40A6822F004020A60DFF8F0814FF4D2
:1008D0008062016808F1140813011402414524D90B
:1008E000A9420DD0B1420FD0B9421AD0614515D0FE
:1008F000494515D0514501D1120312E0594501D1A6
:1009000004220EE0714501D140220AE06D4D1435FC
:10091000A94206D06B4A2832914201D11A4600E022
:1009200022466749091F0A6029E0A94213D0B14253
:1009300015D0B94220D061451BD049451BD0514547
:1009400002D14FF4800217E0414502D14FF080629E
:1009500012E0594501D104220EE0714501D1402237
:100960000AE0584D1435A94206D0564A2832914221
:1009700001D11A4600E022464B4908394A60C16A53
:1009800071E04FF0020808FA04F818EA020F70D07C
:100990005FEA83786DD50A68920606D40A6822F069
:1009A0000A020A60012180F82110DFF810814FF45B
:1009B0000072016808F1140813011402414524D99A
:1009C000A9420DD0B1420FD0B9421AD0614515D01D
:1009D000494515D0514501D1120312E0594501D1C5
:1009E00002220EE0714501D120220AE0354D143576
:1009F000A94206D0334A2832914201D11A4600E07A
:100A000022462F49091F0A6029E0A94213D0B142AA
:100A100015D0B94220D061451BD049451BD0514566
:100A200002D14FF4001217E0414502D14FF000729D
:100A300012E0594501D102220EE0714501D1202278
:100A40000AE0204D1435A94206D01E4A28329142B0
:100A500001D11A4600E02246134908394A600021B4
:100A600080F82010816A00291CD0BDE8F05F08479B
:100A7000FFE70825A540154214D01A0712D50A68C9
:100A800022F00E020A6090F84020C36B012101FAA7
:100A900002F25A60816380F82110002180F8201052
:100AA000016BE0E7BDE8F09F080002401C00024037
:100AB0003000024044000240580002406C000240F6
:100AC000080402401C04024030B560B11A4B0268B1
:100AD00014219A4209D2194B1344B3FBF1F1890056
:100AE000016417490AE0012030BD134B5B421344F7
:100AF000B3FBF1F1890001640F490839C163022198
:100B000080F82110136843F6F0718B43F0E901146B
:100B10002143D0E902452C43214304692143446920
:100B2000214384692143194311600021416301225B
:100B300042770177084630BD08040240F8FFFDBF48
:100B40000000024070B5044690F8200000250128FE
:100B50000CD0012084F8200094F821600020012EA0
:100B600006D084F820000225284670BD022070BD02
:100B7000022684F82160A0632068066826F001063A
:100B800006602046FFF7B6FDE06A0028206801688D
:100B900002D041F00E0106E021F00401016020685E
:100BA000016841F00A0101602068016841F001011B
:100BB0000160D9E72DE9F84FDFF8C891002409F169
:100BC000040A0AF1040B23460F270BF1040ED1E0AF
:100BD0000125A54006EA0502AA4276D1DFF8A8C1A0
:100BE0004E68A6EB0C0866452BD00DDC032E34D0E6
:100BF00005DC36B3012E19D0022E2FD11BE0112EA9
:100C000016D0122E2AD119E0B8F5881F19D006DCAB
:100C1000B8F5803F15D0B8F5801F1FD111E0B8F5A9
:100C2000001F0ED0B8F5041F18D10AE0CB6815E0FC
:100C3000CB681B1D12E0CB6808330FE0CB680C3388
:100C40000CE08B682BB1012B4FF0080303D04561FA
:100C500004E0042302E0056100E00023FF2A01D83C
:100C6000064601E000F104064FEA840501D9A5F12A
:100C70002005D6F8008007FA05FC28EA0C0803FADC
:100C800005F548EA0508C6F800804D68ED0070D506
:100C90003E4DAE6946F00106AE61AD6924F0030633
:100CA00005F0010500953A4D06EB050CDCF80850FF
:100CB000A607360F07FA06F825EA0805DFF8D480FC
:100CC000404503D14FF0000825E052E0DFF8C8802E
:100CD000404502D14FF001081DE0DFF8C0804045DB
:100CE00002D14FF0020816E0DFF8B480404502D18F
:100CF0004FF003080FE0DFF8AC80404502D14FF021
:100D0000040808E0DFF8A080404502D14FF0050854
:100D100001E04FF0060808FA06F848EA0508CCF8A2
:100D200008804D68D9F80060ED034D4601D51643A3
:100D300000E096432E604D68DAF80060AD0355463A
:100D400001D5164300E096432E604D68DBF8006045
:100D5000ED025D4601D5164300E096432E604D68D6
:100D6000DEF80060AD02754601D5164300E09643FB
:100D70002E60641C0A681646E2407FF429AFBDE885
:100D8000F88F000000040140000011100010024024
:100D90000000014000080140000C0140001001402B
:100DA0000014014000180140001C01400148806807
:100DB000704700000000002002488168027811445A
:100DC0008160704700000020074810B5016841F0BD
:100DD00010010160032000F085F8002000F006F803
:100DE00000F024F8002010BD0020024070B50D4D29
:100DF00004464FF47A712878B1FBF0F00A4909688B
:100E0000B1FBF0F000F0FCFA48B9102C07D2002238
:100E10002146501E00F046F800206C6070BD012095
:100E200070BD0000000000200C0000200C4808B538
:100E3000816941F001018161816901F00101009145
:100E4000C16941F08051C161C06900F080500090DB
:100E50000448416821F0E06141F00071416008BD43
:100E6000001002400000014000280DDB00F01F02CE
:100E7000012191404009800000F1E020C0F880117C
:100E8000BFF34F8FBFF36F8F7047002809DB00F06F
:100E90001F02012191404009800000F1E020C0F8CC
:100EA00000117047F0B40E4B1B680C46C3F30223CD
:100EB000C3F10705042D00D90425191D072901D206
:100EC000002300E0DB1E012606FA05F1491E214041
:100ED00099409E40761E16403143F0BC00F0DEBFC4
:100EE0000CED00E0064900F0070208684FF6FF032A
:100EF000184040EA0220034A10430860704700008F
:100F00000CED00E00000FA052DE9F0470F46050062
:100F100061D0434E306800F00700B84209D2306813
:100F200020F0070038433060306800F00700B84216
:100F300051D128683B4C810712D5400703D5606822
:100F400040F4E06060602878000703D5606840F4F2
:100F5000605060606068A96820F0F000084360603D
:100F60002878C00728D06868012810D02168022896
:100F700010D0890700292EDA616821F003010143AE
:100F80006160FFF713FF804641F288390DE0216868
:100F90008903EFE78901EDE7FFF708FFA0EB080100
:100FA000494502D90320BDE8F0876068696800F010
:100FB0000C00B0EB810FEFD1306800F00700B842B1
:100FC0000BD9306820F0070038433060306800F0FB
:100FD0000700B84201D00120E5E72878400705D591
:100FE0006068E96820F4E0600843606028780007E2
:100FF00006D56068296920F4605040EAC10060604D
:1010000000F038F86168084AC1F30311515CC84028
:101010000649086006480068FFF7E8FE0020C2E7BE
:101020000020024000100240282900080C00002087
:10103000040000200448054900684968044AC1F3D7
:101040000221515CC84070470C0000200010024093
:10105000382900080448054900684968044AC1F372
:10106000C221515CC84070470C00002000100240B3
:101070003829000812A185B00FC98DE80F0014A00F
:10108000144A006804905168134801F00C03042BC3
:1010900010D0082B0ED1C1F38343C9031DF8030000
:1010A0000AD5516804AAC1F34041515C0A4A504331
:1010B000B0FBF1F005B0704708494843FAE700007B
:1010C00002030405060708090A0B0C0D0E0F101089
:1010D000010200000010024000127A0000093D00E9
:1010E0002DE9F84F040070D02078C04DC00749D0DA
:1010F0006868C0F38100012807D06868C0F38100E8
:10110000022809D16868C00306D52868800339D54C
:1011100060680028E7D035E06068B0F5803F0BD00C
:1011200010B1B0F5A02F11D0286820F480302860CD
:10113000286820F4802002E0286840F4803028608D
:10114000606890B1FFF732FE06460AE0286840F476
:1011500080202860F0E700BFFFF728FE801B64288E
:1011600073D828688003F7D50CE0FFF71FFE06460A
:1011700005E000BFFFF71AFE801B6428F0D828683E
:101180008003F7D420789A4E80074FF001094FF082
:10119000000839D5686810F00C0F07D06868C0F3F4
:1011A0008100022809D16868C00306D42868800736
:1011B00014D52069012808D110E02069B0B1C6F823
:1011C0000090FFF7F3FD074605E00AE1FFF7EEFDAB
:1011D000C01B0228C4D828688007F7D52868616931
:1011E00020F0F80040EAC10028600DE0C6F8008059
:1011F000FFF7DCFD074604E0FFF7D8FDC01B02281F
:1012000023D828688007F7D4207800072CD57948A0
:10121000A169D9B1C0F80090FFF7C8FD074604E006
:10122000FFF7C4FDC01B02280FD8686A8007F7D5F6
:1012300071484FF4FA510068B0FBF1F0009000BF24
:101240000098411E0091FAD20EE080E0C0F80080C4
:10125000FFF7ACFD074604E0FFF7A8FDC01B02281E
:1012600075D8686A8007F7D42078400760D5E869A8
:101270000027C00008D4E86940F08050E861E869C0
:10128000012700F0805000905C480168C90513D424
:101290000168834641F480710160FFF787FD824653
:1012A00006E000BFFFF782FDA0EB0A0064284ED8DD
:1012B000DBF80000C005F5D5E06801280AD008B1C8
:1012C000052813D0286A20F001002862286A20F03F
:1012D000040002E0286A40F001002862E06841F260
:1012E000883B98B1FFF762FD82460BE0286A40F028
:1012F00004002862EEE700BFFFF758FDA0EB0A01EB
:1013000059455AD8286A8007F6D50CE0FFF74EFDFC
:10131000824605E0FFF74AFDA0EB0A0159454CD88B
:10132000286A8007F6D41FB1E86920F08050E86190
:10133000E06988B36968C1F38101022944D00228B9
:10134000C6F8608004D0FFF731FD044638E034E091
:10135000FFF72CFD074604E0FFF728FDC01B02281D
:101360002BD828688001F7D4206AB0F5803F05D1DA
:101370006868A16820F4003008436860D4E9080177
:101380000843696821F4741108436860C6F86090E6
:10139000FFF70CFD044606E025E000BFFFF706FD61
:1013A000001B022809D828688001F7D51BE000BF80
:1013B000FFF7FCFC001B022802D90320BDE8F88FD0
:1013C00028688001F4D40EE00128F7D06868226A0A
:1013D00000F48031914204D1616A00F470108842B7
:1013E00001D00120EAE70020E8E7000000100240F9
:1013F00000004242800442420C0000200070004085
:1014000010B5401EB0F1807F01D3012010BD4FF018
:10141000E02460610F21601700F040FD0020A06112
:1014200007202061002010BD704710F8391F407858
:101430000843704770B5026804461068D168536964
:1014400010F00F0F52D003F0010501F490762E43F7
:101450005FD0C20705D0CA0503D5E26B42F0010296
:10146000E263420705D5DA0703D0E26B42F00202DD
:10147000E263820705D5DA0703D0E26B42F004028B
:10148000E263020707D501F020022A4303D0E26B92
:1014900042F00802E263E26B002A33D0800604D5F2
:1014A000880602D5204600F007FC20684069E16B01
:1014B000C0F38010090700D428B3204600F0B4FB25
:1014C0002068416949061AD5416921F0400141610E
:1014D000606BA0B12D494163606BFFF739F90028BB
:1014E00010D0606B416BBDE870400847830610D593
:1014F0008B060ED52046BDE8704000F0DDBB2046CF
:10150000FFF792FF70BD2046FFF78EFF0020E063DB
:1015100070BD03062BD50B0629D594F83900212878
:10152000F6D1A068B0F5805F01D12069B0B1206A22
:10153000411C2162216800784860E08C401E000454
:10154000000CE084E4D12068C16821F08001C16012
:101550002068C16841F04001C16070BD206A008808
:10156000C0F308005060206A801C2062E5E7400656
:10157000F3D54806F1D5D168204621F04001D1606D
:10158000202184F8391000F0B1F970BD511B00081A
:1015900070B5040004D094F83900002510B106E0BD
:1015A000012070BD84F83850204600F023F8242034
:1015B00084F839002068C16821F40051C1602046D8
:1015C00000F0C0FB2068016921F4904101612068AE
:1015D000416921F02A0141612068C16841F400514C
:1015E000C160E563202084F8390084F83A000020C7
:1015F00070BD0000F0B585B000240646009401944B
:101600000294039400682D49884254D12C48816982
:1016100041F480418161816901F4804104918169D3
:1016200041F0040181618069264D00F004000490BE
:101630004FF400700090022001900320039069464F
:101640002846FFF7B7FA2815CDE900046946284671
:101650000294FFF7AFFA1D4D1B488027C5E900042F
:10166000C5E902472C616C61AC612846EC61FFF76B
:101670002BFA08B1FFF76BF875636E62134D1248D1
:101680004435143801C5102091C5104845F810495B
:1016900044306C61AC61EC61FFF716FA08B1FFF7FA
:1016A00056F835630022114625206E62FFF7FAFBDB
:1016B0002520FFF7EAFB05B0F0BD0000003801402F
:1016C0000010024000080140580002407400002051
:1016D000F8B5044690F83A0020283CD1C1B3BAB31B
:1016E00094F83800012836D0012084F83800A1622F
:1016F000A2850025E563222084F83A00636B174831
:101700009862636B1648D862636B16481863606B07
:10171000134645630846666B216802463046091D3C
:10172000FFF710FA206801684168009184F838508A
:10173000C16841F48071C1602068416941F00101D4
:1017400041612068416941F0400141610020F8BDDC
:10175000FFE70120FBE70220F9E70000AB1B0008D0
:10176000E71B0008611B0008114910B588421DD114
:10177000A1F11C04206800F095FA002816D16179C7
:10178000208B628A401CB0FBF2F302FB1300A28A9A
:1017900080B2824203D0238BA268D15420830122DD
:1017A000611D2068BDE81040FFF792BF10BD00002A
:1017B00034000020704700002DE9F843044690F8FB
:1017C00039001F4616460D4620284CD1C5B1BEB182
:1017D00094F83800012846D0012084F838004FF0F2
:1017E0000008C4F83C80212084F83900FFF7DEFAB5
:1017F000A6848146E684A068B0F5805F03D004E04B
:101800000120BDE8F883206928B12E465FF000056D
:1018100084F838800EE00026FAE78021204600F0A8
:10182000EDFAA0B9AEB116F8010B21684860E08C62
:10183000401EE084E08C4B464FF0000200970028E9
:10184000EBD14FF04001204600F0D8FA30B1032030
:10185000D7E735F8020BC0F30800E6E7202084F84C
:1018600039000020CDE70220CBE7000070B5044628
:1018700090F83900202830D169B362B394F8380069
:1018800001282AD0012084F838002162A284E28451
:101890000025E563212084F83900236B1048986205
:1018A000236B1048D862236B0F481863206B1346D4
:1018B00045632668206B321DFFF744F921686FF0FD
:1018C0004000086084F838502068416941F0800188
:1018D0004161002070BD012070BD022070BD00007C
:1018E000F11B00081F1C0008611B00080C498842FE
:1018F00014D1A1F11C00418B028A491CB1FBF2F307
:1019000002FB13114183C18A428B914206D0428B64
:10191000C168006811440122FFF7A8BF70470000AA
:10192000340000207047FEE70D4808B5416941F0DA
:10193000010141614069002200F001000090114660
:101940000E20FFF7AFFA0E20FFF79FFA0022114694
:101950000F20FFF7A7FABDE808400F20FFF795BA60
:1019600000100240054808B5816941F00401816119
:10197000806900F00400009008BD000000100240E3
:101980000C4810B50A4901604FF4E1314160002173
:1019900081600C22C160C0E904128161C161FFF75E
:1019A000F7FD002803D0BDE81040FEF7D0BE10BD03
:1019B0000038014034000020FEE770477047704750
:1019C000FFF7FAB930B58FB028216846FEF7E3FB80
:1019D00014210AA8FEF7DFFB01210804CDE900105D
:1019E0000024029402250491CDE907504FF4E01041
:1019F00009906846FFF774FB0F20CDE90A056802DD
:101A0000CDE90C4002210AA80E94FFF77DFA0FB031
:101A100030BD7047418A028B808A0A44101AB0FB9D
:101A2000F1F201FB1200704710B5028B818A8A42E5
:101A300002D14FF0FF3010BD8268438A525C491CCE
:101A400089B2B1FBF3F403FB14118182104610BD7F
:101A500010B504460079012832D0216022826382C9
:101A6000104600F02BFFE060608A00F027FFA060C6
:101A7000E16821B318B301202071206800F012F949
:101A800000281DD1FFF77CFF2068006800F0E4F813
:101A9000FFF7EAF90122611D2068FFF719FE2068AF
:101AA000006800F0D9F800221146FFF7FBF9206822
:101AB000006800F0D1F8BDE81040FFF7E6B9FEE796
:101AC00010BD70B50446C28A238A501CB0FBF3F5E2
:101AD00003FB150080B2638B8342FCD0E36899540A
:101AE000E0822068FFF7A1FC212181431AD0206801
:101AF000006800F0B1F8FFF7B7F9618BE0680122E8
:101B000001442068FFF7B2FE2068006800F0A4F8E6
:101B100000221146FFF7C6F92068006800F09CF823
:101B2000FFF7B3F9012070BD2DE9F04114460D46D1
:101B30000746002607E000BF15F8011B3846FFF7EF
:101B4000C0FF10B1761C641EF6D23046BDE8F081AD
:101B500010B5406A0021C185C184FFF765FC10BD46
:101B600070B5446A2068406994F83910C0F3C01019
:101B70000025212904D118B1E584204600F062F83F
:101B80002068406994F83A10C0F38010222904D1EB
:101B900018B1E585204600F047F8E06B40F01000F2
:101BA000E0632046FFF740FC70BD10B50146406A77
:101BB00009680968890613D40021C1850168CA68CB
:101BC00022F48072CA6001684A6922F001024A6107
:101BD00001684A6922F040024A61202180F83A10E7
:101BE000FFF7C2FD10BD10B5406AFFF7E3FD10BD61
:101BF00010B50146406A0968096889060CD40021BD
:101C0000C18401684A6922F080024A610068C168A3
:101C100041F04001C16010BDFFF768FE10BD10B576
:101C2000406AFFF77FFE10BD0168CA6822F4907217
:101C3000CA6001684A6922F001024A61202180F8E5
:101C40003A1070470168CA6822F0C002CA602021B9
:101C500080F83910704700000D49884201D12520D5
:101C600070470C49884201D1262070470A498842B2
:101C700001D1272070470949884201D1342070479B
:101C80000749884201D1352070474FF0FF30704737
:101C9000003801400044004000480040004C004033
:101CA0000050004010B5FFF7C0FB2221814301D056
:101CB000002010BD012010BD10B590F83A10222967
:101CC00001D0022010BD82684FF480539A4201D1A6
:101CD000016921B1816A9A421BD04AB10AE00268C7
:101CE000816A5268C2F308020A80816A891C08E08E
:101CF000026972B10268526802F07F020A70816A5A
:101D0000491C8162C18D491E0904090CC18503D09B
:101D100016E002685268F1E70168CA6822F0200202
:101D2000CA600168CA6822F48072CA6001684A69A0
:101D300022F001024A61202180F83A10FFF714FDD9
:101D4000002010BD70B5044600680169E26821F406
:101D50004051114301612169A0680843616908434A
:101D60002168CA6841F20C639A430243CA60206842
:101D70004169A26921F44071114341611E49206803
:101D8000884202D1FFF766F901E0FFF753F900EB53
:101D9000C00101EB0012606864218000B2FBF0F327
:101DA000B3FBF1F36FF018067343B2FBF0F5B2FB2F
:101DB000F0F605EB8305322303EB0515B5FBF1F5D2
:101DC000B6FBF1F605F0F00505EB0615B2FBF0F6F3
:101DD000B2FBF0F0B0FBF1F06FF01802504306EBED
:101DE000800003EB0010B0FBF1F0216800F00F0061
:101DF0002844886070BD0000003801402DE9F041A2
:101E0000984617460E460446069D1DE0681C1BD0EA
:101E10002DB1FEF7CBFFA0EB0800A84214D9206833
:101E2000C16821F4D071C1602068416921F00101CD
:101E30004161202084F8390084F83A00002084F8B9
:101E400038000320BDE8F0812068006836EA000011
:101E500004D00020B842D9D00020F3E70120F9E7F0
:101E60000148FFF7E7BA000034000020FEE7000059
:101E70007CB5044600201D46164600290BD0491E9D
:101E8000CDE90041044B6A462946304600F0E8F8A7
:101E9000009A002111707CBD8F2700080907090EE8
:101EA000002804DB00F1E02080F80014704700F007
:101EB0000F0000F1E02080F8141D704702E008C810
:101EC000121F08C1002AFAD170477047002001E0B4
:101ED00001C1121F002AFBD1704700002DE9FF5FEE
:101EE00082B00021DDE90430020DDDF840B003438B
:101EF00018D044F61050A2F2FF3242431514119844
:101F000001281FD0A5EB0B00401C5FEA000A4FF030
:101F100000064E4FDFF83891B046504615D5CAF14D
:101F2000000413E0119801244AA3012801D16FEAAB
:101F30000B010298119AC0E90031C0E9024206B0D3
:101F4000BDE8F09FCBF10000DFE704460021404AE6
:101F5000491842EB0450CDE9001012E0E00707D029
:101F600032463B4640464946FEF715FA80468946CA
:101F700032463B4610461946FEF70DFA06460F4616
:101F80006410002CEAD1DDE90401DDE90023BAF197
:101F9000000F06DAFEF7FFF942464B46FEF7FBF963
:101FA00005E0FEF76AFA42464B46FEF766FA04463B
:101FB0000E460022284BFEF7E7FA03D84FF0FF3019
:101FC000014607E00022254B20463146FEF73CF94A
:101FD000FEF7C2FA102409E0002C0ADB0A220023D3
:101FE000FEF701F9039B30321A55641E50EA0102D4
:101FF000F2D1641C039AC4F111031444119A012A0A
:1020000003D0012208430DD10AE0084304D0002088
:102010004FF0110B119072E7A3EB0B056D1E0DE055
:102020005B4504DD4FF0000205F1010504E003DA31
:102030004FF00002A5F10105002AECD00298119999
:10204000C0E90231C0E9004579E700000000144012
:102050000000F03F300000000000F0430000E03FCF
:102060002DE9FF4F95B09B468946064600250FE2B5
:10207000252877D100242746F84A0121059400E05D
:10208000044316F8013F203B01FA03F01042F7D158
:1020900030782A2811D06FF02F033078A0F1300269
:1020A000092A16D8059A44F0020402EB820203EBD7
:1020B00042021044761C0590EFE759F8042B059274
:1020C000002A03DA504244F40054059044F002041C
:1020D000761C30782E2816D116F8010F44F004042F
:1020E0002A280DD06FF02F023078A0F13003092B91
:1020F00009D807EB870302EB4303C718761CF3E705
:1021000059F8047B761C30786C280FD006DC4C28FC
:1021100017D068280DD06A2814D104E0742810D094
:102120007A280FD10DE044F400140AE044F480143E
:1021300001E044F440147278824202D104F5801424
:10214000761C761C307866280BD013DC582877D0A4
:1021500009DC002875D04528F6D04628F4D0472859
:102160001AD19DE118E0632835D0642879D065281C
:1021700012D195E1702873D008DC6728F1D0692866
:102180006FD06E280DD06F2806D1B5E073282CD003
:10219000752875D0782874D05A46179990476D1CC9
:1021A00075E1C4F30250022809D003280DD0D9F8F4
:1021B000001004280DD00D6009F1040967E1D9F879
:1021C0000010EA17C1E90052F6E7D9F800100D80B7
:1021D000F2E70D70F0E719F8041B8DF800100020ED
:1021E0008DF80100EA46012003E059F804AB4FF0F6
:1021F000FF3061074FF0000102D40DE008F101014A
:102200008846B9420FDA8045F8DB1AF80810002931
:10221000F4D108E008F1010188468142FADB1AF89E
:1022200008100029F6D105985B46A0EB0807214667
:102230003846179A00F094FA284400EB080507E0A6
:102240004DE029E10DE01AF8010B5A461799904725
:10225000B8F10108F7D25B4621463846179A13E1D8
:1022600042E00A220092C4F302524FF0000A022A0E
:1022700008D059F804CB032A4FEAEC710AD00DE0DC
:1022800029E02AE009F1070121F00702F2E802C182
:10229000914609E00FFA8CFC4FEAEC71042A03D155
:1022A0004FFA8CFC4FEAEC71002907DA0A4600214C
:1022B000DCF1000C61EB02012D2202E0220504D5C5
:1022C0002B228DF80420012203E0E20701D0202216
:1022D000F7E7904659E00A2102E010220DE01021B4
:1022E0004FF0000A00910BE010224FF0000A44F07A
:1022F00004040827009203E008224FF0000A00922D
:10230000C4F30252022A05D059F804CB0021032A53
:1023100008D009E009F1070121F00702F2E802C143
:10232000914605E01FFA8CFC042A01D10CF0FF0C49
:102330004FF00008220728D5702806D0009B83F0B4
:10234000100353EA0A0305D00EE040228DF8042062
:10235000012208E05CEA010206D030228DF8042058
:102360008DF8050002229046009B83F0080353EA93
:102370000A030AD15CEA010201D1620705D53022C5
:102380008DF804204FF001087F1E582804D034A097
:1023900003900EA802900DE036A0F9E75346604680
:1023A000009AFDF720FF84460398825C0298401E45
:1023B000029002705CEA0100F0D1029806A9081AA6
:1023C00000F1200A600702D524F4803400E00127E0
:1023D000574502DDA7EB0A0000E0002000EB0A01F0
:1023E000009005984144401A0590E00306D45B46EE
:1023F0002146179A059800F0B3F90544002706E036
:1024000001A85A46C05D179990476D1C7F1C47452F
:10241000F6DBE0030CD55B462146179A059800F0E1
:102420009FF9054404E030205A46179990476D1CE7
:102430000099481E00900029F5DC08E002980299F6
:102440005A460078491C0291179990476D1CBAF1C1
:102450000001AAF1010AF1DC65E100000928010090
:10246000303132333435363738396162636465660A
:1024700000000000303132333435363738394142CC
:10248000434445460000000000F058F90544761C1E
:10249000307800287FF4ECAD19B02846BDE8F08F05
:1024A000620700D4062709F1070222F0070CFCE8B6
:1024B0000223E14603F000485FEA080C02D00FF265
:1024C000702C0DE05FEA045C02D50FF2682C07E087
:1024D0005FEAC47C02D00FF2602C01E0AFF2700C16
:1024E0004FF0FF3823F00043CDF850C065280CD0E2
:1024F00006DC452809D046281DD047283DD13DE0BF
:10250000662818D067287ED138E00021112F01DB22
:10251000112000E0781CCDE9000106A90EA8FFF704
:10252000DDFCDDE90F010E9A03910021009207F115
:10253000010A04914DE04FF000400097CDE90110F1
:1025400006A90EA8FFF7CAFCDDE90F0203920E9B55
:1025500011990022DDF80CA00093049211B9791CA6
:1025600000EB010AB7EB0A0004D4C0F1FF3007F119
:10257000010A0490AAEB0700019044E0012F00DA61
:1025800001270021112F01DD112000E03846CDE99F
:10259000000106A90EA8FFF7A1FCDDE90F010E9AC4
:1025A0000391002104910092BA4621070CD40399AB
:1025B000514500DA8A46BAF1010F05DD009AAAF109
:1025C0000101515C302908D0B84202DA10F1040F41
:1025D00006DA0121CDE9011015E0AAF10101E9E7D0
:1025E000002805DC049901440491AAEB000102E0F3
:1025F000411C514500DD8A460499401A401C019057
:102600004FF000400290200704D40198504501DBB0
:10261000CDF8048000208DF84F0002980DF14F078F
:10262000B0F1004F25D02B200E9002984FF00208F9
:1026300000280CDA404202902D200E9007E00A217B
:102640000298FDF7BAFD3031029007F8011DB8F18C
:102650000001A8F10108F2DC02980028EFD1791EF0
:102660000E980870307800F0200040F0450007F820
:10267000020D12A8C01B00F107081498007800B1E1
:10268000012000EB0A01019801EBE071059841443B
:10269000401A401E0590E00306D45B462146179A77
:1026A000059800F05DF805441498007818B15A4672
:1026B000179990476D1CE00324D55B462146179A75
:1026C000059800F04DF805441CE00498002807DB4D
:1026D000DDE90301884203DD0098405C179901E0C1
:1026E000179930205A469047049805F10105401C7F
:1026F00004900198401E019004D12E205A4617994B
:1027000090476D1CBAF10001AAF1010ADDDC05E079
:1027100017F8010B5A46179990476D1CB8F1000144
:10272000A8F10108F4DC5B462146179A0598ABE650
:102730002D0000002B000000200000002DE9F041DA
:10274000044600251E461746880404D405E0394691
:102750002020B0476D1C641EF9D52846BDE8F081E5
:102760002DE9F041044600251E469046C80301D5D8
:10277000302700E02027880404D505E0414638468C
:10278000B0476D1C641EF9D52846BDE8F0814A6843
:10279000002A06D00A68531C0B6010704868401E5F
:1027A0004860704710B5002821D0114B0022001F4F
:1027B000196803E0814203D80A4649680029F9D123
:1027C00052B11368841A9C4204D100681844106006
:1027D000104602E0506000E0186039B102680B1A40
:1027E000934203D10B681A4402604968416010BDEE
:1027F00010000020ADF57A7DFEF7E6FAFFF7E2F86B
:10280000FFF7B0F8FFF790F8FFF7BAF84FF48062DF
:10281000134623492348FFF71BF900206B46282263
:102820004FF47A7590FBF2F141311954401CA842E3
:10283000F8DBFEF7BBFA06462B461A4669461848EF
:10284000FEF7BAFFFEF7B2FA0446811B16A0FDF7A9
:1028500067FF2A4669461348FFF766F9FEF7A6FAAE
:10286000011B11A0FDF75CFF0E48FFF7D3F804042D
:10287000240CF9D0204600F021F80646002504E09B
:102880000848FFF7D1F870556D1CA542F8DB2246C9
:1028900031460448FFF748F93046FFF783FFE3E786
:1028A000340000201800002044656C746120543A04
:1028B000256C64204D530D0A00000000F0B50B306C
:1028C000154D20F007010024144A0FE003688B42E5
:1028D0000BD38B4205D95E1A43184768C3E90067DA
:1028E00000E04368136002C004E0021D1068002885
:1028F000ECD12046002802D1286808B10020F0BDA4
:10290000064A07481060074A121A22F00702C0E977
:10291000002401202860D7E71400002010000020C8
:102920000401002000210020000000000000000041
:102930000102030406070809000000000102030465
:10294000602900080000002018000000BC1E0008DC
:102950007829000818000020E8240000CC1E000898
:102960000100000010000000000000000024F4003E
:0829700000000000000000005F
:0400000508000131BD
:00000001FF
